:03000000020800F3
:030023000208E7E9
:10080000787FE4F6D8FD75811C020847020978E478
:1008100093A3F8E493A34003F68001F208DFF48089
:1008200029E493A3F85407240CC8C333C4540F44D9
:1008300020C8834004F456800146F6DFE4800B01B3
:1008400002040810204080900938E47E019360BCC7
:10085000A3FF543F30E509541FFEE493A360010E4B
:10086000CF54C025E060A840B8E493A3FAE493A372
:10087000F8E493A3C8C582C8CAC583CAF0A3C8C593
:1008800082C8CAC583CADFE9DEE780BEE51264AA72
:10089000702E751C01E51C14FFE51AA807088002DC
:1008A000C333D8FCF4F5A07412251CF8E6F5807F5C
:1008B0000112096A7580FF051CE51CC3940740D529
:1008C000E512B45510E51AC43333335480F4F5A05F
:1008D000E513F4F580E512B45A0CE513B40107B240
:1008E000B37FFF12096A22C0E0C0D075D000C000FB
:1008F00030983E7412251BF8A699E51B70117412EE
:10090000251BF8E6B4AA057519068003751901E5DB
:1009100019B4010FE51BB4010AE512B4A505E513EE
:10092000F4F5A0E51BB51905751B008002051BC277
:1009300098D000D0D0D0E032011B00071200C0C018
:10094000C0C0C0C00A080001000100010001000190
:10095000011901011A0100758920758DF3D28E7578
:100960009850758780D2AFD2AC22EFD39400400765
:100970007EFFDEFE1F80F32212095712088C80FBD7
:00000001FF
